:1000000050EF03F0160FF66E000EF722000EF86E9A
:100010000900F5501200000000000000002F000051
:100020000007000700147F147F14242A7F2A12C4BB
:10003000C810264636495522500005030000001C12
:100040002241000041221C0014083E081408083E0A
:100050000808000050300010101010100060600000
:100060000020100804023E5149453E00427F4000F6
:1000700042615149462141454B311814127F1027E6
:10008000454545393C4A494930017109050336491E
:10009000494936064949291E0036360000005636C1
:1000A00000000814224100141414141400412214F6
:1000B000080201510906324959513E7E1111117E43
:1000C0007F494949363E414141227F4141221C7FBF
:1000D000494949417F090909013E4149497A7F0857
:1000E00008087F00417F41002040413F017F081404
:1000F00022417F404040407F020C027F7F04081075
:100100007F3E4141413E7F090909063E4151215E42
:100110007F09192946464949493101017F01013FBB
:100120004040403F1F2040201F3F4038403F631465
:1001300008146307087008076151494543007F416F
:100140004100552A552A550041417F000402010211
:1001500004404040404000010204002054545478C0
:100160007F484444383844444420384444487F3825
:1001700054545418087E0901020C5252523E7F0812
:1001800004047800447D40002040443D007F102856
:10019000440000417F40007C041804787C0804047B
:1001A0007838444444387C14141408081414187C17
:1001B0007C080404084854545420043F4440203C24
:1001C0004040207C1C2040201C3C4030403C4428C7
:1001D0001028440C5050503C4464544C44385656FB
:1001E0005519385555561A205555567AFE0FF66E44
:1001F000010EF722000EF86E0900F5501200000003
:1002000000000000000000000000000000000000EE
:1002100000000000000000000000000000000000DE
:1002200000000000000000000000000000000000CE
:10023000000000008080800000000000000000003E
:1002400000000000000000000000000000000000AE
:10025000000000000000000000000000000000009E
:100260000000000000000000000000000000F8F89E
:10027000F8383838383838380000F0F8F878383836
:100280003838383838003E41BE8AB4413E0000005C
:10029000000000000000000000000000000000005E
:1002A000000000000000000000000000000000004E
:1002B000000000000000000000000000000000003E
:1002C0000000FFFFFF707070700000000000FFFF73
:1002D000FF0000000000000000000000000000001F
:1002E000000000000000000000000000000000000E
:1002F00000000000000000000000000000000000FE
:1003000000000000000000000000000000000000ED
:100310000000000000007F7F7F7070707070707050
:1003200000003F7F7F787070707070707000000008
:1003300000000000000000000000000000000000BD
:1003400000000000000000000000000000000000AD
:10035000000000000000000000000000000000009D
:1003600000000000000000000000001F15001F102A
:10037000001F15001F1100011F01001F051A000EAC
:10038000110E001F02041F001D001F1100000000BD
:10039000000000000000000000000000000000005D
:1003A000000000000000000000000000000000004D
:1003B000000000000000000000000000000000003D
:1003C000000000000000000000000000000000002D
:1003D000000000000000000000000000000000001D
:1003E000000000000000000000000000000000000D
:1003F0000000000000000000F30E926EDF0E936E0E
:10040000980E946E96EF03F0EA6A310EE96EEF50A3
:100410000DE0060E016E006A002EFED7012EFBD7FE
:100420007B0E006E002EFED7EF2EF3D712003A2C73
:1004300003D094928B8202D094928B923B6A3B5071
:10044000070810E33950800B03E194948B9402D099
:1004500094948B84D8903936949A8B8A949A8B9AF8
:100460003B2AEDD7120093928A8294908B80010EE2
:10047000316ECADF94908B90010E316EC5DF94907F
:100480008B800A6A0B6A93928A92210E396E3A6ABD
:10049000CEDFBF0E396E3A6ACADF040E396E3A6A91
:1004A000C6DF140E396E3A6AC2DF200E396E3A6A20
:1004B000BEDF0C0E396E3A6ABADFE9EF02F036C0E1
:1004C0000AF037C00BF0800E0A24386E396E3A6A93
:1004D000AEDF400E0B24386E396E3A6AA8DF120088
:1004E0003A503C02F3CF01F0F4CF00F03D02F3505C
:1004F00000263B503C02F3500020026E1200346A8A
:10050000336A34522EE1335006082BE3366A33C087
:1005100037F0D5DF326A316A32521FE13150530869
:100520001CE334C03BF033C03AF03D6A540E3C6EDD
:10053000D7DF01503124356E02503220366E036E03
:10054000355036C0F7FF52DE376E396E010E3A6E07
:100550006EDF312AD8B4322ADFD7332AD8B4342A0E
:10056000D0D7366A376AABDFEAEF02F0EA6A320EBA
:10057000E96EEF500DE0060E016E006A002EFED708
:10058000012EFBD77B0E006E002EFED7EF2EF3D789
:10059000120031500A0802E1346801D0346A336A2B
:1005A0003350060811E3366A33C037F088DF326A09
:1005B0003250530807E334C039F0010E3A6E37DF8A
:1005C000322AF6D7332AECD7366A376A78DF120038
:1005D0004AD795D7080E316EFA0E326EC7DF312E2C
:1005E000FBD7316AD6DF97EF03F036501F0802E3DE
:1005F000610E362636507F0804E2800E365C410FCD
:10060000366E376A375004081EE3200E365C396EAA
:100610003B6A3A6E3D6A050E3C6E62DF02C039F0FD
:1006200001C038F037500124016E000E0220036E25
:10063000015003C0F7FFE6DC386E396E010E3A6EEA
:10064000F6DE372ADFD7050E0A2640EF03F031C069
:1006500036F032C037F033DF34C003F033C0E9FF87
:1006600034C0EAFFEF521BE034C003F03350332AAA
:10067000D8B4342AE96E03C0EAFFEFCF36F0B5D71D
:10068000396A010E3A6ED3DE0A2A0A504F0806E292
:10069000010E3224356E366A376E11DFDDD7120057
:1006A000F86AD09E0C6AB886080EAF6E020EB06E65
:1006B000A60EAC6E900EAB6EC150C00B0F09C16E92
:1006C00015D0020004000009000D566575696C6CB8
:1006D000657A0014001D7363616E6E657220766F1B
:1006E000747265206261646765000000000EF86E38
:1006F000060EF76EC20EF66E0900F550006E000A87
:1007000013E00900F550016EE8BE05D00F0BEA6E4C
:100710000900F5CFE9FF01BC090001AC0900F5CFE4
:10072000EEFF004EE9D7F9D7F86A66D651D7316A9D
:10073000010E326E346A0D0E336E89DF316A020E9D
:10074000326E346A1D0E336E82DF0C0E316EFA0E7D
:10075000326E0CDF312EFBD7316A1BDF00D000D0A8
:060760000000FCD7FFD7EA
:020000040030CA
:0E00000000C2190E008630003FC03FE03F40B6
:00000001FF
;PIC18F2685
;CRC=DCD5  CREATED="06-mai-22 11:55"
